{
  "_format": "hh-sol-artifact-1",
  "contractName": "Staking",
  "sourceName": "contracts/staking.sol",
  "abi": [
    {
      "inputs": [
        {
          "internalType": "uint256",
          "name": "_stakingPeriod",
          "type": "uint256"
        },
        {
          "internalType": "uint256",
          "name": "_totalRewards",
          "type": "uint256"
        }
      ],
      "stateMutability": "nonpayable",
      "type": "constructor"
    },
    {
      "inputs": [
        {
          "internalType": "address",
          "name": "_user",
          "type": "address"
        }
      ],
      "name": "calculateRewards",
      "outputs": [
        {
          "internalType": "uint256",
          "name": "",
          "type": "uint256"
        }
      ],
      "stateMutability": "view",
      "type": "function"
    },
    {
      "inputs": [
        {
          "internalType": "uint256",
          "name": "_amount",
          "type": "uint256"
        }
      ],
      "name": "deposit",
      "outputs": [],
      "stateMutability": "nonpayable",
      "type": "function"
    },
    {
      "inputs": [],
      "name": "distributeRewards",
      "outputs": [],
      "stateMutability": "nonpayable",
      "type": "function"
    },
    {
      "inputs": [],
      "name": "owner",
      "outputs": [
        {
          "internalType": "address",
          "name": "",
          "type": "address"
        }
      ],
      "stateMutability": "view",
      "type": "function"
    },
    {
      "inputs": [
        {
          "internalType": "uint256",
          "name": "_amount",
          "type": "uint256"
        }
      ],
      "name": "stake",
      "outputs": [],
      "stateMutability": "nonpayable",
      "type": "function"
    },
    {
      "inputs": [
        {
          "internalType": "address",
          "name": "",
          "type": "address"
        }
      ],
      "name": "stakedBalances",
      "outputs": [
        {
          "internalType": "uint256",
          "name": "",
          "type": "uint256"
        }
      ],
      "stateMutability": "view",
      "type": "function"
    },
    {
      "inputs": [
        {
          "internalType": "uint256",
          "name": "",
          "type": "uint256"
        }
      ],
      "name": "stakers",
      "outputs": [
        {
          "internalType": "address",
          "name": "",
          "type": "address"
        }
      ],
      "stateMutability": "view",
      "type": "function"
    },
    {
      "inputs": [],
      "name": "stakingPeriod",
      "outputs": [
        {
          "internalType": "uint256",
          "name": "",
          "type": "uint256"
        }
      ],
      "stateMutability": "view",
      "type": "function"
    },
    {
      "inputs": [
        {
          "internalType": "address",
          "name": "",
          "type": "address"
        }
      ],
      "name": "stakingStartTimes",
      "outputs": [
        {
          "internalType": "uint256",
          "name": "",
          "type": "uint256"
        }
      ],
      "stateMutability": "view",
      "type": "function"
    },
    {
      "inputs": [],
      "name": "totalRewards",
      "outputs": [
        {
          "internalType": "uint256",
          "name": "",
          "type": "uint256"
        }
      ],
      "stateMutability": "view",
      "type": "function"
    },
    {
      "inputs": [
        {
          "internalType": "address",
          "name": "",
          "type": "address"
        }
      ],
      "name": "userBalances",
      "outputs": [
        {
          "internalType": "uint256",
          "name": "",
          "type": "uint256"
        }
      ],
      "stateMutability": "view",
      "type": "function"
    },
    {
      "inputs": [],
      "name": "withdraw",
      "outputs": [],
      "stateMutability": "nonpayable",
      "type": "function"
    }
  ],
  "bytecode": "0x608060405234801561001057600080fd5b50604051610f2c380380610f2c833981810160405281019061003291906100c2565b336000806101000a81548173ffffffffffffffffffffffffffffffffffffffff021916908373ffffffffffffffffffffffffffffffffffffffff16021790555081600181905550806002819055505050610102565b600080fd5b6000819050919050565b61009f8161008c565b81146100aa57600080fd5b50565b6000815190506100bc81610096565b92915050565b600080604083850312156100d9576100d8610087565b5b60006100e7858286016100ad565b92505060206100f8858286016100ad565b9150509250929050565b610e1b806101116000396000f3fe608060405234801561001057600080fd5b50600436106100b45760003560e01c80638da5cb5b116100715780638da5cb5b1461017b5780639dedb97d14610199578063a694fc3a146101c9578063b6b55f25146101e5578063c03d5b4714610201578063fd5e6dd11461021f576100b4565b80630e15561a146100b95780631460fa87146100d757806326224c64146101075780633ccfd60b1461013757806364ab8675146101415780636f4a2cd014610171575b600080fd5b6100c161024f565b6040516100ce9190610920565b60405180910390f35b6100f160048036038101906100ec919061099e565b610255565b6040516100fe9190610920565b60405180910390f35b610121600480360381019061011c919061099e565b61026d565b60405161012e9190610920565b60405180910390f35b61013f610285565b005b61015b6004803603810190610156919061099e565b61044e565b6040516101689190610920565b60405180910390f35b6101796104fe565b005b6101836106b8565b60405161019091906109da565b60405180910390f35b6101b360048036038101906101ae919061099e565b6106dc565b6040516101c09190610920565b60405180910390f35b6101e360048036038101906101de9190610a21565b6106f4565b005b6101ff60048036038101906101fa9190610a21565b610869565b005b6102096108c2565b6040516102169190610920565b60405180910390f35b61023960048036038101906102349190610a21565b6108c8565b60405161024691906109da565b60405180910390f35b60025481565b60046020528060005260406000206000915090505481565b60036020528060005260406000206000915090505481565b600154600560003373ffffffffffffffffffffffffffffffffffffffff1673ffffffffffffffffffffffffffffffffffffffff16815260200190815260200160002054426102d39190610a7d565b1015610314576040517f08c379a000000000000000000000000000000000000000000000000000000000815260040161030b90610b0e565b60405180910390fd5b600061031f3361044e565b905080600460003373ffffffffffffffffffffffffffffffffffffffff1673ffffffffffffffffffffffffffffffffffffffff1681526020019081526020016000205461036c9190610b2e565b600360003373ffffffffffffffffffffffffffffffffffffffff1673ffffffffffffffffffffffffffffffffffffffff16815260200190815260200160002060008282546103ba9190610b2e565b925050819055506000600460003373ffffffffffffffffffffffffffffffffffffffff1673ffffffffffffffffffffffffffffffffffffffff168152602001908152602001600020819055506000600560003373ffffffffffffffffffffffffffffffffffffffff1673ffffffffffffffffffffffffffffffffffffffff1681526020019081526020016000208190555050565b600080600560008473ffffffffffffffffffffffffffffffffffffffff1673ffffffffffffffffffffffffffffffffffffffff168152602001908152602001600020544261049c9190610a7d565b905060015481600460008673ffffffffffffffffffffffffffffffffffffffff1673ffffffffffffffffffffffffffffffffffffffff168152602001908152602001600020546104ec9190610b62565b6104f69190610bd3565b915050919050565b60008054906101000a900473ffffffffffffffffffffffffffffffffffffffff1673ffffffffffffffffffffffffffffffffffffffff163373ffffffffffffffffffffffffffffffffffffffff161461058c576040517f08c379a000000000000000000000000000000000000000000000000000000000815260040161058390610c76565b60405180910390fd5b6000600254116105d1576040517f08c379a00000000000000000000000000000000000000000000000000000000081526004016105c890610ce2565b60405180910390fd5b60005b6006805490508110156106b5576000600682815481106105f7576105f6610d02565b5b9060005260206000200160009054906101000a900473ffffffffffffffffffffffffffffffffffffffff169050600061062f8261044e565b905080600360008473ffffffffffffffffffffffffffffffffffffffff1673ffffffffffffffffffffffffffffffffffffffff16815260200190815260200160002060008282546106809190610b2e565b9250508190555080600260008282546106999190610a7d565b92505081905550505080806106ad90610d31565b9150506105d4565b50565b60008054906101000a900473ffffffffffffffffffffffffffffffffffffffff1681565b60056020528060005260406000206000915090505481565b80600360003373ffffffffffffffffffffffffffffffffffffffff1673ffffffffffffffffffffffffffffffffffffffff168152602001908152602001600020541015610776576040517f08c379a000000000000000000000000000000000000000000000000000000000815260040161076d90610dc5565b60405180910390fd5b80600360003373ffffffffffffffffffffffffffffffffffffffff1673ffffffffffffffffffffffffffffffffffffffff16815260200190815260200160002060008282546107c59190610a7d565b9250508190555080600460003373ffffffffffffffffffffffffffffffffffffffff1673ffffffffffffffffffffffffffffffffffffffff168152602001908152602001600020600082825461081b9190610b2e565b9250508190555042600560003373ffffffffffffffffffffffffffffffffffffffff1673ffffffffffffffffffffffffffffffffffffffff1681526020019081526020016000208190555050565b80600360003373ffffffffffffffffffffffffffffffffffffffff1673ffffffffffffffffffffffffffffffffffffffff16815260200190815260200160002060008282546108b89190610b2e565b9250508190555050565b60015481565b600681815481106108d857600080fd5b906000526020600020016000915054906101000a900473ffffffffffffffffffffffffffffffffffffffff1681565b6000819050919050565b61091a81610907565b82525050565b60006020820190506109356000830184610911565b92915050565b600080fd5b600073ffffffffffffffffffffffffffffffffffffffff82169050919050565b600061096b82610940565b9050919050565b61097b81610960565b811461098657600080fd5b50565b60008135905061099881610972565b92915050565b6000602082840312156109b4576109b361093b565b5b60006109c284828501610989565b91505092915050565b6109d481610960565b82525050565b60006020820190506109ef60008301846109cb565b92915050565b6109fe81610907565b8114610a0957600080fd5b50565b600081359050610a1b816109f5565b92915050565b600060208284031215610a3757610a3661093b565b5b6000610a4584828501610a0c565b91505092915050565b7f4e487b7100000000000000000000000000000000000000000000000000000000600052601160045260246000fd5b6000610a8882610907565b9150610a9383610907565b9250828203905081811115610aab57610aaa610a4e565b5b92915050565b600082825260208201905092915050565b7f5374616b696e6720706572696f64206e6f742079657420636f6d706c65746500600082015250565b6000610af8601f83610ab1565b9150610b0382610ac2565b602082019050919050565b60006020820190508181036000830152610b2781610aeb565b9050919050565b6000610b3982610907565b9150610b4483610907565b9250828201905080821115610b5c57610b5b610a4e565b5b92915050565b6000610b6d82610907565b9150610b7883610907565b9250828202610b8681610907565b91508282048414831517610b9d57610b9c610a4e565b5b5092915050565b7f4e487b7100000000000000000000000000000000000000000000000000000000600052601260045260246000fd5b6000610bde82610907565b9150610be983610907565b925082610bf957610bf8610ba4565b5b828204905092915050565b7f4f6e6c79206f776e65722063616e2063616c6c20746869732066756e6374696f60008201527f6e00000000000000000000000000000000000000000000000000000000000000602082015250565b6000610c60602183610ab1565b9150610c6b82610c04565b604082019050919050565b60006020820190508181036000830152610c8f81610c53565b9050919050565b7f4e6f2072657761726473206c65667420746f2064697374726962757465000000600082015250565b6000610ccc601d83610ab1565b9150610cd782610c96565b602082019050919050565b60006020820190508181036000830152610cfb81610cbf565b9050919050565b7f4e487b7100000000000000000000000000000000000000000000000000000000600052603260045260246000fd5b6000610d3c82610907565b91507fffffffffffffffffffffffffffffffffffffffffffffffffffffffffffffffff8203610d6e57610d6d610a4e565b5b600182019050919050565b7f496e73756666696369656e742062616c616e6365000000000000000000000000600082015250565b6000610daf601483610ab1565b9150610dba82610d79565b602082019050919050565b60006020820190508181036000830152610dde81610da2565b905091905056fea26469706673582212205733571c26b137240d4ecfa0ea2661354469f5152282003bbc502a108c0d8c8e64736f6c63430008140033",
  "linkReferences": {},
  "deployedLinkReferences": {}
}